{
  "_format": "hh-sol-artifact-1",
  "contractName": "Campaign",
  "sourceName": "contracts/campaign.sol",
  "abi": [
    {
      "inputs": [
        {
          "internalType": "string",
          "name": "_title",
          "type": "string"
        },
        {
          "internalType": "address",
          "name": "_tokenAddress",
          "type": "address"
        },
        {
          "internalType": "address",
          "name": "_owner",
          "type": "address"
        }
      ],
      "stateMutability": "nonpayable",
      "type": "constructor"
    },
    {
      "anonymous": false,
      "inputs": [
        {
          "indexed": true,
          "internalType": "address",
          "name": "user",
          "type": "address"
        },
        {
          "indexed": false,
          "internalType": "uint256",
          "name": "amount",
          "type": "uint256"
        }
      ],
      "name": "AllocationsSet",
      "type": "event"
    },
    {
      "anonymous": false,
      "inputs": [
        {
          "indexed": true,
          "internalType": "address",
          "name": "depositor",
          "type": "address"
        },
        {
          "indexed": false,
          "internalType": "uint256",
          "name": "amount",
          "type": "uint256"
        }
      ],
      "name": "Deposit",
      "type": "event"
    },
    {
      "anonymous": false,
      "inputs": [
        {
          "indexed": true,
          "internalType": "address",
          "name": "rescuer",
          "type": "address"
        },
        {
          "indexed": false,
          "internalType": "uint256",
          "name": "amount",
          "type": "uint256"
        }
      ],
      "name": "FundsRescued",
      "type": "event"
    },
    {
      "anonymous": false,
      "inputs": [
        {
          "indexed": false,
          "internalType": "enum Campaign.State",
          "name": "newState",
          "type": "uint8"
        }
      ],
      "name": "StateChanged",
      "type": "event"
    },
    {
      "anonymous": false,
      "inputs": [
        {
          "indexed": true,
          "internalType": "address",
          "name": "claimer",
          "type": "address"
        },
        {
          "indexed": false,
          "internalType": "uint256",
          "name": "amount",
          "type": "uint256"
        }
      ],
      "name": "TokensClaimed",
      "type": "event"
    },
    {
      "inputs": [
        {
          "internalType": "address",
          "name": "",
          "type": "address"
        }
      ],
      "name": "allocations",
      "outputs": [
        {
          "internalType": "uint256",
          "name": "",
          "type": "uint256"
        }
      ],
      "stateMutability": "view",
      "type": "function"
    },
    {
      "inputs": [],
      "name": "changeStateToEnded",
      "outputs": [],
      "stateMutability": "nonpayable",
      "type": "function"
    },
    {
      "inputs": [],
      "name": "changeStateToLive",
      "outputs": [],
      "stateMutability": "nonpayable",
      "type": "function"
    },
    {
      "inputs": [],
      "name": "changeStateToRescue",
      "outputs": [],
      "stateMutability": "nonpayable",
      "type": "function"
    },
    {
      "inputs": [],
      "name": "claimTokens",
      "outputs": [],
      "stateMutability": "nonpayable",
      "type": "function"
    },
    {
      "inputs": [],
      "name": "currentState",
      "outputs": [
        {
          "internalType": "enum Campaign.State",
          "name": "",
          "type": "uint8"
        }
      ],
      "stateMutability": "view",
      "type": "function"
    },
    {
      "inputs": [
        {
          "internalType": "uint256",
          "name": "amount",
          "type": "uint256"
        }
      ],
      "name": "deposit",
      "outputs": [],
      "stateMutability": "nonpayable",
      "type": "function"
    },
    {
      "inputs": [
        {
          "internalType": "uint256",
          "name": "",
          "type": "uint256"
        }
      ],
      "name": "depositors",
      "outputs": [
        {
          "internalType": "address",
          "name": "",
          "type": "address"
        }
      ],
      "stateMutability": "view",
      "type": "function"
    },
    {
      "inputs": [
        {
          "internalType": "address",
          "name": "",
          "type": "address"
        }
      ],
      "name": "deposits",
      "outputs": [
        {
          "internalType": "uint256",
          "name": "",
          "type": "uint256"
        }
      ],
      "stateMutability": "view",
      "type": "function"
    },
    {
      "inputs": [
        {
          "internalType": "address",
          "name": "user",
          "type": "address"
        }
      ],
      "name": "getAllocation",
      "outputs": [
        {
          "internalType": "uint256",
          "name": "",
          "type": "uint256"
        }
      ],
      "stateMutability": "view",
      "type": "function"
    },
    {
      "inputs": [
        {
          "internalType": "address",
          "name": "depositor",
          "type": "address"
        }
      ],
      "name": "getDeposit",
      "outputs": [
        {
          "internalType": "uint256",
          "name": "",
          "type": "uint256"
        }
      ],
      "stateMutability": "view",
      "type": "function"
    },
    {
      "inputs": [
        {
          "internalType": "address",
          "name": "user",
          "type": "address"
        }
      ],
      "name": "getDepositedAmount",
      "outputs": [
        {
          "internalType": "uint256",
          "name": "",
          "type": "uint256"
        }
      ],
      "stateMutability": "view",
      "type": "function"
    },
    {
      "inputs": [],
      "name": "getDepositors",
      "outputs": [
        {
          "internalType": "address[]",
          "name": "",
          "type": "address[]"
        },
        {
          "internalType": "uint256[]",
          "name": "",
          "type": "uint256[]"
        }
      ],
      "stateMutability": "view",
      "type": "function"
    },
    {
      "inputs": [
        {
          "internalType": "address",
          "name": "user",
          "type": "address"
        }
      ],
      "name": "hasAddressClaimed",
      "outputs": [
        {
          "internalType": "bool",
          "name": "",
          "type": "bool"
        }
      ],
      "stateMutability": "view",
      "type": "function"
    },
    {
      "inputs": [
        {
          "internalType": "address",
          "name": "",
          "type": "address"
        }
      ],
      "name": "hasClaimed",
      "outputs": [
        {
          "internalType": "bool",
          "name": "",
          "type": "bool"
        }
      ],
      "stateMutability": "view",
      "type": "function"
    },
    {
      "inputs": [],
      "name": "owner",
      "outputs": [
        {
          "internalType": "address",
          "name": "",
          "type": "address"
        }
      ],
      "stateMutability": "view",
      "type": "function"
    },
    {
      "inputs": [
        {
          "internalType": "address[]",
          "name": "users",
          "type": "address[]"
        },
        {
          "internalType": "uint256[]",
          "name": "amounts",
          "type": "uint256[]"
        }
      ],
      "name": "setAllocations",
      "outputs": [],
      "stateMutability": "nonpayable",
      "type": "function"
    },
    {
      "inputs": [],
      "name": "title",
      "outputs": [
        {
          "internalType": "string",
          "name": "",
          "type": "string"
        }
      ],
      "stateMutability": "view",
      "type": "function"
    },
    {
      "inputs": [],
      "name": "tokenAddress",
      "outputs": [
        {
          "internalType": "address",
          "name": "",
          "type": "address"
        }
      ],
      "stateMutability": "view",
      "type": "function"
    },
    {
      "inputs": [],
      "name": "totalDeposits",
      "outputs": [
        {
          "internalType": "uint256",
          "name": "",
          "type": "uint256"
        }
      ],
      "stateMutability": "view",
      "type": "function"
    }
  ],
  "bytecode": "0x608060405234801561001057600080fd5b5060405161161738038061161783398101604081905261002f916100a5565b600061003b848261021b565b50600180546001600160a01b0319166001600160a01b03938416179055600380546001600160a81b03191691909216179055506102d9565b634e487b7160e01b600052604160045260246000fd5b80516001600160a01b03811681146100a057600080fd5b919050565b6000806000606084860312156100ba57600080fd5b83516001600160401b038111156100d057600080fd5b8401601f810186136100e157600080fd5b80516001600160401b038111156100fa576100fa610073565b604051601f8201601f19908116603f011681016001600160401b038111828210171561012857610128610073565b60405281815282820160200188101561014057600080fd5b60005b8281101561015f57602081850181015183830182015201610143565b5060006020838301015280955050505061017b60208501610089565b915061018960408501610089565b90509250925092565b600181811c908216806101a657607f821691505b6020821081036101c657634e487b7160e01b600052602260045260246000fd5b50919050565b601f82111561021657806000526020600020601f840160051c810160208510156101f35750805b601f840160051c820191505b8181101561021357600081556001016101ff565b50505b505050565b81516001600160401b0381111561023457610234610073565b610248816102428454610192565b846101cc565b6020601f82116001811461027c57600083156102645750848201515b600019600385901b1c1916600184901b178455610213565b600084815260208120601f198516915b828110156102ac578785015182556020948501946001909201910161028c565b50848210156102ca5786840151600019600387901b60f8161c191681555b50505050600190811b01905550565b61132f806102e86000396000f3fe608060405234801561001057600080fd5b506004361061012c5760003560e01c8063832e3f88116100ad578063b94467e211610071578063b94467e2146102c3578063e1254fba146102cb578063e4b2fb79146102f4578063e9081ec7146102cb578063fc7e286d1461030757600080fd5b8063832e3f881461023e5780638da5cb5b1461026a57806393b60e8f146102955780639d76ea581461029d578063b6b55f25146102b057600080fd5b806352a9039c116100f457806352a9039c146101c45780636c7b7f2e146101e457806373b2e80e146101fa5780637a00464a1461022d5780637d8820971461023557600080fd5b80630c3f6acf146101315780630e0229231461015b5780631ff64acd1461019257806348c54b9d146101a75780634a79d50c146101af575b600080fd5b60035461014590600160a01b900460ff1681565b6040516101529190610ef9565b60405180910390f35b610184610169366004610f3d565b6001600160a01b031660009081526005602052604090205490565b604051908152602001610152565b6101a56101a0366004611037565b610327565b005b6101a561054f565b6101b7610741565b6040516101529190611100565b6101846101d2366004610f3d565b60056020526000908152604090205481565b6101ec6107cf565b60405161015292919061114e565b61021d610208366004610f3d565b60066020526000908152604090205460ff1681565b6040519015158152602001610152565b6101a56108f7565b61018460025481565b61021d61024c366004610f3d565b6001600160a01b031660009081526006602052604090205460ff1690565b60035461027d906001600160a01b031681565b6040516001600160a01b039091168152602001610152565b6101a56109ab565b60015461027d906001600160a01b031681565b6101a56102be3660046111d9565b610bd8565b6101a5610e0d565b6101846102d9366004610f3d565b6001600160a01b031660009081526004602052604090205490565b61027d6103023660046111d9565b610eb9565b610184610315366004610f3d565b60046020526000908152604090205481565b6003546001600160a01b0316331461035a5760405162461bcd60e51b8152600401610351906111f2565b60405180910390fd5b60038060038054600160a01b900460ff169081111561037b5761037b610ee3565b146103985760405162461bcd60e51b815260040161035190611229565b81518351146103e95760405162461bcd60e51b815260206004820152601860248201527f4d69736d61746368656420696e707574206c656e6774687300000000000000006044820152606401610351565b6000805b84518110156104f65783818151811061040857610408611260565b60200260200101516005600087848151811061042657610426611260565b60200260200101516001600160a01b03166001600160a01b031681526020019081526020016000208190555083818151811061046457610464611260565b6020026020010151826104779190611276565b915084818151811061048b5761048b611260565b60200260200101516001600160a01b03167f853871dd4ff4467ae0a3797c2a42e5eab302352599565eef0619f58b00f2f3d98583815181106104cf576104cf611260565b60200260200101516040516104e691815260200190565b60405180910390a26001016103ed565b506002548111156105495760405162461bcd60e51b815260206004820152601b60248201527f416c6c6f636174696f6e2065786365656473206465706f7369747300000000006044820152606401610351565b50505050565b60038060038054600160a01b900460ff169081111561057057610570610ee3565b1461058d5760405162461bcd60e51b815260040161035190611229565b33600090815260056020526040902054806105e05760405162461bcd60e51b8152602060048201526013602482015272139bc81d1bdad95b9cc8185b1b1bd8d85d1959606a1b6044820152606401610351565b3360009081526006602052604090205460ff16156106395760405162461bcd60e51b8152602060048201526016602482015275151bdad95b9cc8185b1c9958591e4818db185a5b595960521b6044820152606401610351565b3360008181526006602052604090819020805460ff1916600190811790915554905163a9059cbb60e01b81526004810192909252602482018390526001600160a01b031690819063a9059cbb906044016020604051808303816000875af11580156106a8573d6000803e3d6000fd5b505050506040513d601f19601f820116820180604052508101906106cc919061129d565b6107075760405162461bcd60e51b815260206004820152600c60248201526b10db185a5b4819985a5b195960a21b6044820152606401610351565b60405182815233907f896e034966eaaf1adc54acc0f257056febbd300c9e47182cf761982cf1f5e4309060200160405180910390a2505050565b6000805461074e906112bf565b80601f016020809104026020016040519081016040528092919081815260200182805461077a906112bf565b80156107c75780601f1061079c576101008083540402835291602001916107c7565b820191906000526020600020905b8154815290600101906020018083116107aa57829003601f168201915b505050505081565b606080600060078054905067ffffffffffffffff8111156107f2576107f2610f5f565b60405190808252806020026020018201604052801561081b578160200160208202803683370190505b50905060005b60075481101561088e57600460006007838154811061084257610842611260565b60009182526020808320909101546001600160a01b03168352820192909252604001902054825183908390811061087b5761087b611260565b6020908102919091010152600101610821565b50600781818054806020026020016040519081016040528092919081815260200182805480156108e757602002820191906000526020600020905b81546001600160a01b031681526001909101906020018083116108c9575b5050505050915092509250509091565b6003546001600160a01b031633146109215760405162461bcd60e51b8152600401610351906111f2565b60018060038054600160a01b900460ff169081111561094257610942610ee3565b1461095f5760405162461bcd60e51b815260040161035190611229565b6003805460ff60a01b1916600360a01b1781556040517f551dc40198cc79684bb69e4931dba4ac16e4598792ee1c0a5000aeea366d7bb6916109a091610ef9565b60405180910390a150565b6003546001600160a01b031633146109d55760405162461bcd60e51b8152600401610351906111f2565b60008060038054600160a01b900460ff16908111156109f6576109f6610ee3565b14610a135760405162461bcd60e51b815260040161035190611229565b6001546001600160a01b031660005b600754811015610b8357600060078281548110610a4157610a41611260565b60009182526020808320909101546001600160a01b031680835260049091526040909120549091508015610b79576001600160a01b03828116600081815260046020819052604080832092909255905163a9059cbb60e01b815290810191909152602481018390529085169063a9059cbb906044016020604051808303816000875af1158015610ad5573d6000803e3d6000fd5b505050506040513d601f19601f82011682018060405250810190610af9919061129d565b610b355760405162461bcd60e51b815260206004820152600d60248201526c1499599d5b990819985a5b1959609a1b6044820152606401610351565b816001600160a01b03167fc4474c2790e13695f6d2b6f1d8e164290b55370f87a542fd7711abe0a1bf40ac82604051610b7091815260200190565b60405180910390a25b5050600101610a22565b50600060029081556003805460ff60a01b1916600160a11b1790556040517f551dc40198cc79684bb69e4931dba4ac16e4598792ee1c0a5000aeea366d7bb691610bcc91610ef9565b60405180910390a15050565b600060038054600160a01b900460ff1690811115610bf857610bf8610ee3565b1480610c215750600160038054600160a01b900460ff1690811115610c1f57610c1f610ee3565b145b610c835760405162461bcd60e51b815260206004820152602d60248201527f4465706f7369747320617265206e6f7420616c6c6f77656420696e207468652060448201526c63757272656e7420737461746560981b6064820152608401610351565b6001546040516323b872dd60e01b8152336004820152306024820152604481018390526001600160a01b039091169081906323b872dd906064016020604051808303816000875af1158015610cdc573d6000803e3d6000fd5b505050506040513d601f19601f82011682018060405250810190610d00919061129d565b610d3e5760405162461bcd60e51b815260206004820152600f60248201526e151c985b9cd9995c8819985a5b1959608a1b6044820152606401610351565b336000908152600460205260408120549003610d9757600780546001810182556000919091527fa66cc928b5edb82af9bd49922954155ab7b0942694bea4ce44661d9a8736c6880180546001600160a01b031916331790555b3360009081526004602052604081208054849290610db6908490611276565b925050819055508160026000828254610dcf9190611276565b909155505060405182815233907fe1fffcc4923d04b559f4d29a8bfc6cda04eb5b0d3c460751c2402c5c5cc9109c9060200160405180910390a25050565b6003546001600160a01b03163314610e375760405162461bcd60e51b8152600401610351906111f2565b60008060038054600160a01b900460ff1690811115610e5857610e58610ee3565b14610e755760405162461bcd60e51b815260040161035190611229565b6003805460ff60a01b1916600160a01b1790556040517f551dc40198cc79684bb69e4931dba4ac16e4598792ee1c0a5000aeea366d7bb6906109a090600190610ef9565b60078181548110610ec957600080fd5b6000918252602090912001546001600160a01b0316905081565b634e487b7160e01b600052602160045260246000fd5b6020810160048310610f1b57634e487b7160e01b600052602160045260246000fd5b91905290565b80356001600160a01b0381168114610f3857600080fd5b919050565b600060208284031215610f4f57600080fd5b610f5882610f21565b9392505050565b634e487b7160e01b600052604160045260246000fd5b604051601f8201601f1916810167ffffffffffffffff81118282101715610f9e57610f9e610f5f565b604052919050565b600067ffffffffffffffff821115610fc057610fc0610f5f565b5060051b60200190565b600082601f830112610fdb57600080fd5b8135610fee610fe982610fa6565b610f75565b8082825260208201915060208360051b86010192508583111561101057600080fd5b602085015b8381101561102d578035835260209283019201611015565b5095945050505050565b6000806040838503121561104a57600080fd5b823567ffffffffffffffff81111561106157600080fd5b8301601f8101851361107257600080fd5b8035611080610fe982610fa6565b8082825260208201915060208360051b8501019250878311156110a257600080fd5b6020840193505b828410156110cb576110ba84610f21565b8252602093840193909101906110a9565b9450505050602083013567ffffffffffffffff8111156110ea57600080fd5b6110f685828601610fca565b9150509250929050565b602081526000825180602084015260005b8181101561112e5760208186018101516040868401015201611111565b506000604082850101526040601f19601f83011684010191505092915050565b6040808252835190820181905260009060208501906060840190835b818110156111915783516001600160a01b031683526020938401939092019160010161116a565b50508381036020808601919091528551808352918101925085019060005b818110156111cd5782518452602093840193909201916001016111af565b50919695505050505050565b6000602082840312156111eb57600080fd5b5035919050565b60208082526018908201527f4f6e6c79206f776e65722063616e2063616c6c20746869730000000000000000604082015260600190565b6020808252601d908201527f496e76616c696420737461746520666f72207468697320616374696f6e000000604082015260600190565b634e487b7160e01b600052603260045260246000fd5b8082018082111561129757634e487b7160e01b600052601160045260246000fd5b92915050565b6000602082840312156112af57600080fd5b81518015158114610f5857600080fd5b600181811c908216806112d357607f821691505b6020821081036112f357634e487b7160e01b600052602260045260246000fd5b5091905056fea2646970667358221220aeafc3a93a7997c064232a9cfd91704bec60ea489ec8e360003975370474f67764736f6c634300081a0033",
  "linkReferences": {},
  "deployedLinkReferences": {}
}