{
  "_format": "hh-sol-artifact-1",
  "contractName": "Campaign",
  "sourceName": "contracts/campaign.sol",
  "abi": [
    {
      "inputs": [
        {
          "internalType": "string",
          "name": "_title",
          "type": "string"
        },
        {
          "internalType": "address",
          "name": "_tokenAddress",
          "type": "address"
        },
        {
          "internalType": "address",
          "name": "_owner",
          "type": "address"
        },
        {
          "internalType": "address",
          "name": "_feeRecipient",
          "type": "address"
        }
      ],
      "stateMutability": "nonpayable",
      "type": "constructor"
    },
    {
      "anonymous": false,
      "inputs": [
        {
          "indexed": true,
          "internalType": "address",
          "name": "user",
          "type": "address"
        },
        {
          "indexed": false,
          "internalType": "uint256",
          "name": "amount",
          "type": "uint256"
        }
      ],
      "name": "AllocationsSet",
      "type": "event"
    },
    {
      "anonymous": false,
      "inputs": [
        {
          "indexed": true,
          "internalType": "address",
          "name": "depositor",
          "type": "address"
        },
        {
          "indexed": false,
          "internalType": "uint256",
          "name": "amount",
          "type": "uint256"
        },
        {
          "indexed": false,
          "internalType": "uint256",
          "name": "fee",
          "type": "uint256"
        }
      ],
      "name": "Deposit",
      "type": "event"
    },
    {
      "anonymous": false,
      "inputs": [
        {
          "indexed": true,
          "internalType": "address",
          "name": "rescuer",
          "type": "address"
        },
        {
          "indexed": false,
          "internalType": "uint256",
          "name": "amount",
          "type": "uint256"
        }
      ],
      "name": "FundsRescued",
      "type": "event"
    },
    {
      "anonymous": false,
      "inputs": [
        {
          "indexed": false,
          "internalType": "uint256",
          "name": "amount",
          "type": "uint256"
        }
      ],
      "name": "RemainingTokensRescued",
      "type": "event"
    },
    {
      "anonymous": false,
      "inputs": [
        {
          "indexed": false,
          "internalType": "enum Campaign.State",
          "name": "newState",
          "type": "uint8"
        }
      ],
      "name": "StateChanged",
      "type": "event"
    },
    {
      "anonymous": false,
      "inputs": [
        {
          "indexed": true,
          "internalType": "address",
          "name": "claimer",
          "type": "address"
        },
        {
          "indexed": false,
          "internalType": "uint256",
          "name": "amount",
          "type": "uint256"
        }
      ],
      "name": "TokensClaimed",
      "type": "event"
    },
    {
      "inputs": [],
      "name": "DEPOSIT_FEE",
      "outputs": [
        {
          "internalType": "uint256",
          "name": "",
          "type": "uint256"
        }
      ],
      "stateMutability": "view",
      "type": "function"
    },
    {
      "inputs": [
        {
          "internalType": "address",
          "name": "",
          "type": "address"
        }
      ],
      "name": "allocations",
      "outputs": [
        {
          "internalType": "uint256",
          "name": "",
          "type": "uint256"
        }
      ],
      "stateMutability": "view",
      "type": "function"
    },
    {
      "inputs": [],
      "name": "changeStateToEnded",
      "outputs": [],
      "stateMutability": "nonpayable",
      "type": "function"
    },
    {
      "inputs": [],
      "name": "changeStateToLive",
      "outputs": [],
      "stateMutability": "nonpayable",
      "type": "function"
    },
    {
      "inputs": [],
      "name": "changeStateToRescue",
      "outputs": [],
      "stateMutability": "nonpayable",
      "type": "function"
    },
    {
      "inputs": [],
      "name": "claimTokens",
      "outputs": [],
      "stateMutability": "nonpayable",
      "type": "function"
    },
    {
      "inputs": [],
      "name": "currentState",
      "outputs": [
        {
          "internalType": "enum Campaign.State",
          "name": "",
          "type": "uint8"
        }
      ],
      "stateMutability": "view",
      "type": "function"
    },
    {
      "inputs": [
        {
          "internalType": "uint256",
          "name": "amount",
          "type": "uint256"
        }
      ],
      "name": "deposit",
      "outputs": [],
      "stateMutability": "payable",
      "type": "function"
    },
    {
      "inputs": [
        {
          "internalType": "uint256",
          "name": "",
          "type": "uint256"
        }
      ],
      "name": "depositors",
      "outputs": [
        {
          "internalType": "address",
          "name": "",
          "type": "address"
        }
      ],
      "stateMutability": "view",
      "type": "function"
    },
    {
      "inputs": [
        {
          "internalType": "address",
          "name": "",
          "type": "address"
        }
      ],
      "name": "deposits",
      "outputs": [
        {
          "internalType": "uint256",
          "name": "",
          "type": "uint256"
        }
      ],
      "stateMutability": "view",
      "type": "function"
    },
    {
      "inputs": [],
      "name": "feeRecipient",
      "outputs": [
        {
          "internalType": "address",
          "name": "",
          "type": "address"
        }
      ],
      "stateMutability": "view",
      "type": "function"
    },
    {
      "inputs": [
        {
          "internalType": "address",
          "name": "user",
          "type": "address"
        }
      ],
      "name": "getAllocation",
      "outputs": [
        {
          "internalType": "uint256",
          "name": "",
          "type": "uint256"
        }
      ],
      "stateMutability": "view",
      "type": "function"
    },
    {
      "inputs": [
        {
          "internalType": "address",
          "name": "depositor",
          "type": "address"
        }
      ],
      "name": "getDeposit",
      "outputs": [
        {
          "internalType": "uint256",
          "name": "",
          "type": "uint256"
        }
      ],
      "stateMutability": "view",
      "type": "function"
    },
    {
      "inputs": [
        {
          "internalType": "address",
          "name": "user",
          "type": "address"
        }
      ],
      "name": "getDepositedAmount",
      "outputs": [
        {
          "internalType": "uint256",
          "name": "",
          "type": "uint256"
        }
      ],
      "stateMutability": "view",
      "type": "function"
    },
    {
      "inputs": [],
      "name": "getDepositors",
      "outputs": [
        {
          "internalType": "address[]",
          "name": "",
          "type": "address[]"
        },
        {
          "internalType": "uint256[]",
          "name": "",
          "type": "uint256[]"
        }
      ],
      "stateMutability": "view",
      "type": "function"
    },
    {
      "inputs": [
        {
          "internalType": "address",
          "name": "user",
          "type": "address"
        }
      ],
      "name": "hasAddressClaimed",
      "outputs": [
        {
          "internalType": "bool",
          "name": "",
          "type": "bool"
        }
      ],
      "stateMutability": "view",
      "type": "function"
    },
    {
      "inputs": [
        {
          "internalType": "address",
          "name": "",
          "type": "address"
        }
      ],
      "name": "hasClaimed",
      "outputs": [
        {
          "internalType": "bool",
          "name": "",
          "type": "bool"
        }
      ],
      "stateMutability": "view",
      "type": "function"
    },
    {
      "inputs": [],
      "name": "owner",
      "outputs": [
        {
          "internalType": "address",
          "name": "",
          "type": "address"
        }
      ],
      "stateMutability": "view",
      "type": "function"
    },
    {
      "inputs": [],
      "name": "rescueRemainingTokens",
      "outputs": [],
      "stateMutability": "nonpayable",
      "type": "function"
    },
    {
      "inputs": [
        {
          "internalType": "address[]",
          "name": "users",
          "type": "address[]"
        },
        {
          "internalType": "uint256[]",
          "name": "amounts",
          "type": "uint256[]"
        }
      ],
      "name": "setAllocations",
      "outputs": [],
      "stateMutability": "nonpayable",
      "type": "function"
    },
    {
      "inputs": [],
      "name": "title",
      "outputs": [
        {
          "internalType": "string",
          "name": "",
          "type": "string"
        }
      ],
      "stateMutability": "view",
      "type": "function"
    },
    {
      "inputs": [],
      "name": "tokenAddress",
      "outputs": [
        {
          "internalType": "address",
          "name": "",
          "type": "address"
        }
      ],
      "stateMutability": "view",
      "type": "function"
    },
    {
      "inputs": [],
      "name": "totalDeposits",
      "outputs": [
        {
          "internalType": "uint256",
          "name": "",
          "type": "uint256"
        }
      ],
      "stateMutability": "view",
      "type": "function"
    },
    {
      "inputs": [
        {
          "internalType": "address",
          "name": "_feeRecipient",
          "type": "address"
        }
      ],
      "name": "updateFeeRecipient",
      "outputs": [],
      "stateMutability": "nonpayable",
      "type": "function"
    },
    {
      "inputs": [],
      "name": "withdrawEther",
      "outputs": [],
      "stateMutability": "nonpayable",
      "type": "function"
    }
  ],
  "bytecode": "0x608060405234801561001057600080fd5b50604051611fa2380380611fa283398101604081905261002f9161011a565b60016000556001600160a01b03811661008e5760405162461bcd60e51b815260206004820152601d60248201527f496e76616c69642066656520726563697069656e742061646472657373000000604482015260640160405180910390fd5b600161009a85826102a1565b50600280546001600160a01b03199081166001600160a01b03958616179091556004805460058054909316938616939093179091556001600160a81b0319909116919092161790555061035f565b634e487b7160e01b600052604160045260246000fd5b80516001600160a01b038116811461011557600080fd5b919050565b6000806000806080858703121561013057600080fd5b84516001600160401b0381111561014657600080fd5b8501601f8101871361015757600080fd5b80516001600160401b03811115610170576101706100e8565b604051601f8201601f19908116603f011681016001600160401b038111828210171561019e5761019e6100e8565b6040528181528282016020018910156101b657600080fd5b60005b828110156101d5576020818501810151838301820152016101b9565b506000602083830101528096505050506101f1602086016100fe565b92506101ff604086016100fe565b915061020d606086016100fe565b905092959194509250565b600181811c9082168061022c57607f821691505b60208210810361024c57634e487b7160e01b600052602260045260246000fd5b50919050565b601f82111561029c57806000526020600020601f840160051c810160208510156102795750805b601f840160051c820191505b818110156102995760008155600101610285565b50505b505050565b81516001600160401b038111156102ba576102ba6100e8565b6102ce816102c88454610218565b84610252565b6020601f82116001811461030257600083156102ea5750848201515b600019600385901b1c1916600184901b178455610299565b600084815260208120601f198516915b828110156103325787850151825560209485019460019092019101610312565b50848210156103505786840151600019600387901b60f8161c191681555b50505050600190811b01905550565b611c348061036e6000396000f3fe6080604052600436106101665760003560e01c80637d882097116100d1578063b94467e21161008a578063e4b2fb7911610064578063e4b2fb7914610463578063e9081ec71461042d578063f160d36914610483578063fc7e286d146104a357600080fd5b8063b94467e2146103fd578063de363e6514610412578063e1254fba1461042d57600080fd5b80637d88209714610346578063832e3f881461035c5780638da5cb5b1461039557806393b60e8f146103b55780639d76ea58146103ca578063b6b55f25146103ea57600080fd5b806352a9039c1161012357806352a9039c146102775780636c7b7f2e146102a45780637362377b146102c757806373b2e80e146102dc578063765fc49b1461031c5780637a00464a1461033157600080fd5b80630c3f6acf1461016b5780630e022923146101a25780631ff64acd146101e6578063469048401461020857806348c54b9d146102405780634a79d50c14610255575b600080fd5b34801561017757600080fd5b5060045461018c90600160a01b900460ff1681565b6040516101999190611775565b60405180910390f35b3480156101ae57600080fd5b506101d86101bd3660046117b9565b6001600160a01b031660009081526007602052604090205490565b604051908152602001610199565b3480156101f257600080fd5b506102066102013660046118ac565b6104d0565b005b34801561021457600080fd5b50600554610228906001600160a01b031681565b6040516001600160a01b039091168152602001610199565b34801561024c57600080fd5b506102066106f8565b34801561026157600080fd5b5061026a61087b565b6040516101999190611999565b34801561028357600080fd5b506101d86102923660046117b9565b60076020526000908152604090205481565b3480156102b057600080fd5b506102b9610909565b6040516101999291906119cc565b3480156102d357600080fd5b50610206610a31565b3480156102e857600080fd5b5061030c6102f73660046117b9565b60086020526000908152604090205460ff1681565b6040519015158152602001610199565b34801561032857600080fd5b50610206610b6a565b34801561033d57600080fd5b50610206610dd7565b34801561035257600080fd5b506101d860035481565b34801561036857600080fd5b5061030c6103773660046117b9565b6001600160a01b031660009081526008602052604090205460ff1690565b3480156103a157600080fd5b50600454610228906001600160a01b031681565b3480156103c157600080fd5b50610206610e8e565b3480156103d657600080fd5b50600254610228906001600160a01b031681565b6102066103f8366004611a57565b611049565b34801561040957600080fd5b506102066112f2565b34801561041e57600080fd5b506101d866038d7ea4c6800081565b34801561043957600080fd5b506101d86104483660046117b9565b6001600160a01b031660009081526006602052604090205490565b34801561046f57600080fd5b5061022861047e366004611a57565b61139e565b34801561048f57600080fd5b5061020661049e3660046117b9565b6113c8565b3480156104af57600080fd5b506101d86104be3660046117b9565b60066020526000908152604090205481565b6004546001600160a01b031633146105035760405162461bcd60e51b81526004016104fa90611a70565b60405180910390fd5b600380600454600160a01b900460ff1660038111156105245761052461175f565b146105415760405162461bcd60e51b81526004016104fa90611aa7565b81518351146105925760405162461bcd60e51b815260206004820152601860248201527f4d69736d61746368656420696e707574206c656e67746873000000000000000060448201526064016104fa565b6000805b845181101561069f578381815181106105b1576105b1611ade565b6020026020010151600760008784815181106105cf576105cf611ade565b60200260200101516001600160a01b03166001600160a01b031681526020019081526020016000208190555083818151811061060d5761060d611ade565b6020026020010151826106209190611b0a565b915084818151811061063457610634611ade565b60200260200101516001600160a01b03167f853871dd4ff4467ae0a3797c2a42e5eab302352599565eef0619f58b00f2f3d985838151811061067857610678611ade565b602002602001015160405161068f91815260200190565b60405180910390a2600101610596565b506003548111156106f25760405162461bcd60e51b815260206004820152601b60248201527f416c6c6f636174696f6e2065786365656473206465706f73697473000000000060448201526064016104fa565b50505050565b600380600454600160a01b900460ff1660038111156107195761071961175f565b146107365760405162461bcd60e51b81526004016104fa90611aa7565b6002600054036107585760405162461bcd60e51b81526004016104fa90611b23565b6002600090815533815260076020526040902054806107af5760405162461bcd60e51b8152602060048201526013602482015272139bc81d1bdad95b9cc8185b1b1bd8d85d1959606a1b60448201526064016104fa565b3360009081526008602052604090205460ff16156108085760405162461bcd60e51b8152602060048201526016602482015275151bdad95b9cc8185b1c9958591e4818db185a5b595960521b60448201526064016104fa565b336000818152600860205260409020805460ff191660011790556002546001600160a01b03169061083b9082908461146a565b60405182815233907f896e034966eaaf1adc54acc0f257056febbd300c9e47182cf761982cf1f5e430906020015b60405180910390a25050600160005550565b6001805461088890611b5a565b80601f01602080910402602001604051908101604052809291908181526020018280546108b490611b5a565b80156109015780601f106108d657610100808354040283529160200191610901565b820191906000526020600020905b8154815290600101906020018083116108e457829003601f168201915b505050505081565b606080600060098054905067ffffffffffffffff81111561092c5761092c6117d4565b604051908082528060200260200182016040528015610955578160200160208202803683370190505b50905060005b6009548110156109c857600660006009838154811061097c5761097c611ade565b60009182526020808320909101546001600160a01b0316835282019290925260400190205482518390839081106109b5576109b5611ade565b602090810291909101015260010161095b565b5060098181805480602002602001604051908101604052809291908181526020018280548015610a2157602002820191906000526020600020905b81546001600160a01b03168152600190910190602001808311610a03575b5050505050915092509250509091565b6004546001600160a01b03163314610a5b5760405162461bcd60e51b81526004016104fa90611a70565b600260005403610a7d5760405162461bcd60e51b81526004016104fa90611b23565b60026000554780610ac55760405162461bcd60e51b81526020600482015260126024820152714e6f2045544820746f20776974686472617760701b60448201526064016104fa565b6004546040516000916001600160a01b03169083908381818185875af1925050503d8060008114610b12576040519150601f19603f3d011682016040523d82523d6000602084013e610b17565b606091505b5050905080610b615760405162461bcd60e51b815260206004820152601660248201527508cc2d2d8cac840e8de40eed2e8d0c8e4c2ee408aa8960531b60448201526064016104fa565b50506001600055565b6004546001600160a01b03163314610b945760405162461bcd60e51b81526004016104fa90611a70565b600380600454600160a01b900460ff166003811115610bb557610bb561175f565b14610bd25760405162461bcd60e51b81526004016104fa90611aa7565b600260005403610bf45760405162461bcd60e51b81526004016104fa90611b23565b6002600081815590546001600160a01b031690805b600954811015610c63576007600060098381548110610c2a57610c2a611ade565b60009182526020808320909101546001600160a01b03168352820192909252604001902054610c599083611b0a565b9150600101610c09565b506040516370a0823160e01b81523060048201526000906001600160a01b038416906370a0823190602401602060405180830381865afa158015610cab573d6000803e3d6000fd5b505050506040513d601f19601f82011682018060405250810190610ccf9190611b94565b9050818111610d205760405162461bcd60e51b815260206004820152601d60248201527f4e6f2072656d61696e696e6720746f6b656e7320746f2072657363756500000060448201526064016104fa565b6000610d2c8383611bad565b905060008111610d7e5760405162461bcd60e51b815260206004820152601d60248201527f4e6f2072656d61696e696e6720746f6b656e7320746f2072657363756500000060448201526064016104fa565b600454610d98906001600160a01b0386811691168361146a565b6040518181527f766da609db01f3e66af23934e777343ffb8f0b11581e932b26d4d2b78bc43bfa9060200160405180910390a150506001600055505050565b6004546001600160a01b03163314610e015760405162461bcd60e51b81526004016104fa90611a70565b600180600454600160a01b900460ff166003811115610e2257610e2261175f565b14610e3f5760405162461bcd60e51b81526004016104fa90611aa7565b6004805460ff60a01b1916600360a01b1790556040517f551dc40198cc79684bb69e4931dba4ac16e4598792ee1c0a5000aeea366d7bb690610e8390600390611775565b60405180910390a150565b6004546001600160a01b03163314610eb85760405162461bcd60e51b81526004016104fa90611a70565b600080600454600160a01b900460ff166003811115610ed957610ed961175f565b14610ef65760405162461bcd60e51b81526004016104fa90611aa7565b600260005403610f185760405162461bcd60e51b81526004016104fa90611b23565b6002600081815590546001600160a01b0316905b600954811015610fee57600060098281548110610f4b57610f4b611ade565b60009182526020808320909101546001600160a01b031680835260069091526040909120549091508015610fe4576001600160a01b03808316600090815260066020526040812055610fa0908516838361146a565b816001600160a01b03167fc4474c2790e13695f6d2b6f1d8e164290b55370f87a542fd7711abe0a1bf40ac82604051610fdb91815260200190565b60405180910390a25b5050600101610f2c565b5060006003556004805460ff60a01b1916600160a11b1790556040517f551dc40198cc79684bb69e4931dba4ac16e4598792ee1c0a5000aeea366d7bb69061103890600290611775565b60405180910390a150506001600055565b60026000540361106b5760405162461bcd60e51b81526004016104fa90611b23565b60026000908155600454600160a01b900460ff1660038111156110905761109061175f565b14806110b957506001600454600160a01b900460ff1660038111156110b7576110b761175f565b145b61111b5760405162461bcd60e51b815260206004820152602d60248201527f4465706f7369747320617265206e6f7420616c6c6f77656420696e207468652060448201526c63757272656e7420737461746560981b60648201526084016104fa565b66038d7ea4c68000341461116a5760405162461bcd60e51b8152602060048201526016602482015275125b98dbdc9c9958dd0811551208199959481cd95b9d60521b60448201526064016104fa565b6005546040516000916001600160a01b03169034908381818185875af1925050503d80600081146111b7576040519150601f19603f3d011682016040523d82523d6000602084013e6111bc565b606091505b505090508061120d5760405162461bcd60e51b815260206004820152601a60248201527f4661696c656420746f207472616e73666572204554482066656500000000000060448201526064016104fa565b6002546001600160a01b0316611225813330866114d2565b33600090815260066020526040812054900361127e57600980546001810182556000919091527f6e1540171b6c0c960b71a7020d9f60077f6af931a8bbf590da0223dacf75c7af0180546001600160a01b031916331790555b336000908152600660205260408120805485929061129d908490611b0a565b9250508190555082600360008282546112b69190611b0a565b90915550506040805184815234602082015233917f90890809c654f11d6e72a28fa60149770a0d11ec6c92319d6ceb2bb0a4ea1a159101610869565b6004546001600160a01b0316331461131c5760405162461bcd60e51b81526004016104fa90611a70565b600080600454600160a01b900460ff16600381111561133d5761133d61175f565b1461135a5760405162461bcd60e51b81526004016104fa90611aa7565b6004805460ff60a01b1916600160a01b1790556040517f551dc40198cc79684bb69e4931dba4ac16e4598792ee1c0a5000aeea366d7bb690610e8390600190611775565b600981815481106113ae57600080fd5b6000918252602090912001546001600160a01b0316905081565b6004546001600160a01b031633146113f25760405162461bcd60e51b81526004016104fa90611a70565b6001600160a01b0381166114485760405162461bcd60e51b815260206004820152601d60248201527f496e76616c69642066656520726563697069656e74206164647265737300000060448201526064016104fa565b600580546001600160a01b0319166001600160a01b0392909216919091179055565b6040516001600160a01b0383166024820152604481018290526114cd90849063a9059cbb60e01b906064015b60408051601f198184030181529190526020810180516001600160e01b03166001600160e01b03199093169290921790915261150a565b505050565b6040516001600160a01b03808516602483015283166044820152606481018290526106f29085906323b872dd60e01b90608401611496565b600061155f826040518060400160405280602081526020017f5361666545524332303a206c6f772d6c6576656c2063616c6c206661696c6564815250856001600160a01b03166115dc9092919063ffffffff16565b8051909150156114cd578080602001905181019061157d9190611bc0565b6114cd5760405162461bcd60e51b815260206004820152602a60248201527f5361666545524332303a204552433230206f7065726174696f6e20646964206e6044820152691bdd081cdd58d8d9595960b21b60648201526084016104fa565b60606115eb84846000856115f5565b90505b9392505050565b6060824710156116565760405162461bcd60e51b815260206004820152602660248201527f416464726573733a20696e73756666696369656e742062616c616e636520666f6044820152651c8818d85b1b60d21b60648201526084016104fa565b6001600160a01b0385163b6116ad5760405162461bcd60e51b815260206004820152601d60248201527f416464726573733a2063616c6c20746f206e6f6e2d636f6e747261637400000060448201526064016104fa565b600080866001600160a01b031685876040516116c99190611be2565b60006040518083038185875af1925050503d8060008114611706576040519150601f19603f3d011682016040523d82523d6000602084013e61170b565b606091505b509150915061171b828286611726565b979650505050505050565b606083156117355750816115ee565b8251156117455782518084602001fd5b8160405162461bcd60e51b81526004016104fa9190611999565b634e487b7160e01b600052602160045260246000fd5b602081016004831061179757634e487b7160e01b600052602160045260246000fd5b91905290565b80356001600160a01b03811681146117b457600080fd5b919050565b6000602082840312156117cb57600080fd5b6115ee8261179d565b634e487b7160e01b600052604160045260246000fd5b604051601f8201601f1916810167ffffffffffffffff81118282101715611813576118136117d4565b604052919050565b600067ffffffffffffffff821115611835576118356117d4565b5060051b60200190565b600082601f83011261185057600080fd5b813561186361185e8261181b565b6117ea565b8082825260208201915060208360051b86010192508583111561188557600080fd5b602085015b838110156118a257803583526020928301920161188a565b5095945050505050565b600080604083850312156118bf57600080fd5b823567ffffffffffffffff8111156118d657600080fd5b8301601f810185136118e757600080fd5b80356118f561185e8261181b565b8082825260208201915060208360051b85010192508783111561191757600080fd5b6020840193505b828410156119405761192f8461179d565b82526020938401939091019061191e565b9450505050602083013567ffffffffffffffff81111561195f57600080fd5b61196b8582860161183f565b9150509250929050565b60005b83811015611990578181015183820152602001611978565b50506000910152565b60208152600082518060208401526119b8816040850160208701611975565b601f01601f19169190910160400192915050565b6040808252835190820181905260009060208501906060840190835b81811015611a0f5783516001600160a01b03168352602093840193909201916001016119e8565b50508381036020808601919091528551808352918101925085019060005b81811015611a4b578251845260209384019390920191600101611a2d565b50919695505050505050565b600060208284031215611a6957600080fd5b5035919050565b60208082526018908201527f4f6e6c79206f776e65722063616e2063616c6c20746869730000000000000000604082015260600190565b6020808252601d908201527f496e76616c696420737461746520666f72207468697320616374696f6e000000604082015260600190565b634e487b7160e01b600052603260045260246000fd5b634e487b7160e01b600052601160045260246000fd5b80820180821115611b1d57611b1d611af4565b92915050565b6020808252601f908201527f5265656e7472616e637947756172643a207265656e7472616e742063616c6c00604082015260600190565b600181811c90821680611b6e57607f821691505b602082108103611b8e57634e487b7160e01b600052602260045260246000fd5b50919050565b600060208284031215611ba657600080fd5b5051919050565b81810381811115611b1d57611b1d611af4565b600060208284031215611bd257600080fd5b815180151581146115ee57600080fd5b60008251611bf4818460208701611975565b919091019291505056fea26469706673582212206ce952c53c91407eacf006451f750483c7485835918343fdd25c510905a369ed64736f6c634300081a0033",
  "linkReferences": {},
  "deployedLinkReferences": {}
}